:04000000A0EF00F07D
:1000080000C015F0F2A40FD0162A0A0E165CD8B05C
:10001800166A16C01BF038D8D59E17C0D7FF19C06E
:10002800D6FFD58EF294F2A20FD00B0E176E000EEB
:10003800186EDC0E196E000E1A6ED59E0B0ED76E5A
:10004800DC0ED66ED58EF292F0A00FD0C20E176ECF
:10005800000E186EF70E196E000E1A6ED59EC20E9F
:10006800D76EF70ED66ED58EF09015C000F0110041
:10007800F28EF288F086F28AF292F090D08EF184B5
:08008800F08CF18CF18A1200EA
:10009000000E1B5C04E31B50090801E302D08C6ACC
:1000A0003FD01FD03F0E8C6E3BD0060E8C6E38D0EA
:1000B0005B0E8C6E35D04F0E8C6E32D0660E8C6E11
:1000C0002FD06D0E8C6E2CD07D0E8C6E29D0070E2D
:1000D0008C6E26D07F0E8C6E23D06F0E8C6E20D04F
:1000E0001FD01B50000ADEE01B50010ADEE01B504F
:1000F000020ADEE01B50030ADEE01B50040ADEE0C9
:100100001B50050ADEE01B50060ADEE01B50070A02
:10011000DEE01B50080ADEE01B50090ADEE0E0D7F3
:020120001200CB
:0E0122000F0EC11293809382956A836A1200B9
:100130000900F5CFE6FF0006FBE10106F9E1120038
:10014000166AEFDF040ED56E97DFF294FFD7FFD764
:020000040030CA
:0E000000000C1F1EFF8381FF0FC00FE00F409A
:00000001FF
